{
  "contractName": "SimpleStorage",
  "abi": [
    {
      "anonymous": false,
      "inputs": [
        {
          "indexed": false,
          "internalType": "uint256",
          "name": "newValue",
          "type": "uint256"
        }
      ],
      "name": "MyEvent",
      "type": "event"
    },
    {
      "inputs": [
        {
          "internalType": "uint256",
          "name": "_data",
          "type": "uint256"
        }
      ],
      "name": "updateData",
      "outputs": [],
      "stateMutability": "nonpayable",
      "type": "function"
    },
    {
      "inputs": [],
      "name": "readData",
      "outputs": [
        {
          "internalType": "uint256",
          "name": "",
          "type": "uint256"
        }
      ],
      "stateMutability": "view",
      "type": "function",
      "constant": true
    }
  ],
  "bytecode": "0x608060405234801561000f575f80fd5b5061017a8061001d5f395ff3fe608060405234801561000f575f80fd5b5060043610610034575f3560e01c806309e9600814610038578063bef55ef314610054575b5f80fd5b610052600480360381019061004d91906100f1565b610072565b005b61005c6100b2565b604051610069919061012b565b60405180910390f35b7f6c2b4666ba8da5a95717621d879a77de725f3d816709b9cbe9f059b8f875e284816040516100a1919061012b565b60405180910390a1805f8190555050565b5f8054905090565b5f80fd5b5f819050919050565b6100d0816100be565b81146100da575f80fd5b50565b5f813590506100eb816100c7565b92915050565b5f60208284031215610106576101056100ba565b5b5f610113848285016100dd565b91505092915050565b610125816100be565b82525050565b5f60208201905061013e5f83018461011c565b9291505056fea2646970667358221220ae2147a757a5c5713f9f4fa15135a4f74f5ffa9921f8925c0230cad0c35be78764736f6c63430008140033",
  "immutableReferences": {},
  "source": "// SPDX-License-Identifier: MIT\npragma solidity >=0.4.22 <0.9.0;\n\ncontract SimpleStorage {\n    uint data;\n\n    event MyEvent(uint newValue);\n\n    function updateData(uint _data) external {\n        emit MyEvent(_data);\n        data = _data;\n    }\n\n    function readData() external view returns (uint) {\n        return data;\n    }\n}\n",
  "sourcePath": "/Users/alexis/Desktop/projects/other/b2broker/truffle/contracts/SimpleStorage.sol",
  "compiler": {
    "name": "solc",
    "version": "0.8.20+commit.a1b79de6.Emscripten.clang"
  },
  "schemaVersion": "3.4.14",
  "updatedAt": "2023-07-27T04:36:29.342Z",
  "networkType": "ethereum",
  "devdoc": {
    "kind": "dev",
    "methods": {},
    "version": 1
  },
  "userdoc": {
    "kind": "user",
    "methods": {},
    "version": 1
  }
}